:040000000CEF00F011
:10000800FACF34F0FBCF35F0E9CF36F083ED07F0C7
:04001800FAEF0CF0FF
:100800000001000A006400E803102741542B5053F4
:1008100057443D303030300D0A000A2B42545354B7
:100820004154453A310D0A000A2B42545354415465
:10083000453A330D0A000A2B425453544154453A69
:10084000340D0A000A434F4E4E4543543A4F4B0D68
:100850000A0041542B524F4C453D300D0A00415483
:100860002B494E510D0A0025640000000001000EC6
:100870000001C16F0001BC0E0001C06FC7D00001B4
:10088000C951250AD8B40BD0B8C0D9FFB9C0DAFF16
:100890000001C9C0DFFF0001B84BB92BB7D0000E73
:1008A0000001C26F0001BAC0F6FF0001BBC0F7FF34
:1008B0000001BA4BBB2BF86A08000001F5CFC9F064
:1008C0000001C951000AD8B4B2D0640AD8B403D028
:1008D0000D0AD8A49BD0C0C0D9FFC1C0DAFF000167
:1008E000DECFC4F00001DDCFC5F0020E0001C0274D
:1008F000000E0001C1230001C551800AF36E800E75
:10090000F35C000ED8B4C45DD8B009D0030E00016A
:10091000C2130001C46D0001C51FD8B0C52B010E64
:100920000001C96F0001C951050AD8B41FD00001E8
:10093000C951020D010EF324F66E080EF420F76E75
:10094000F86A000EF8220900F5CFBEF00900F5CFD5
:10095000BFF00001BE510001C45D0001BF510001A4
:10096000C559D8A003D00001C92BDCD7C2C0BEF046
:10097000030E0001BE17D8B409D0B8C0D9FFB9C062
:10098000DAFF2D0EDF6E0001B84BB92BC9C0C3F0E2
:1009900037D00001C351020D010EF324F66E080E8C
:1009A000F420F76EF86A000EF82209000001F5CF76
:1009B000AEF00A000001F5CFAFF0C4C0ACF0C5C086
:1009C000ADF0E7EC0BF00001ACC0B3F00001ADC03E
:1009D000B4F0000E0001B66F0A0E0001B56F2BECEB
:1009E0000DF00001B351300F0001C96FB8C0D9FF3D
:1009F000B9C0DAFF0001C9C0DFFF0001B84BB92B55
:100A00000001C3070001C329D8A4C3D70001BAC09D
:100A1000F6FF0001BBC0F7FF0001BA4BBB2BF86A21
:100A200008000001F5CFC9F00001C96728D7B8C098
:100A3000D9FFB9C0DAFF000EDF6E12000001BAC0A4
:100A4000BEF00001BF6BC06B0001B9350001BE37BD
:100A500001E3BF810001BE510001C16F0001C16708
:100A600001D013D00001BDC0BEF00001BF6BC06B50
:100A70000001BC350001BE3701E3BF810001BE515A
:100A80000001C66F0001C6670AD0000E0001B86FF2
:100A9000000E0001B96F000E0001BA6F80D0000196
:100AA000C6517B0F0001C127BAC0C6F00001BD517D
:100AB0000001C61B800E0001C6170001B98F00019E
:100AC000BC8FFF0E0001BB17FF0E0001BC17000E0C
:100AD0000001BD17000E0001C26F000E0001C36FC0
:100AE000000E0001C46F070E0001C56F0001B8A120
:100AF0000CD00001BB510001C2270001BC51000114
:100B0000C3230001BD510001C4230001D89000019E
:100B1000BA330001B9330001B8330001D8900001A5
:100B2000BB370001BC370001BD370001C52FDED740
:100B3000090E0001C56F0001B8A10CD00001BB5126
:100B40000001C2270001BC510001C3230001BD51B7
:100B50000001C4230001D8900001BA330001B93369
:100B60000001B8330001D8900001C4330001C33341
:100B70000001C2330001C52FDED7C2C0ACF0C3C034
:100B8000ADF0C4C0AEF0C1C0AFF0C6C0B0F0FEEC76
:100B900006F0ACC0B8F0ADC0B9F0AEC0BAF012000B
:100BA0000001C9C0CBF00001CC6BCD6B0001C83592
:100BB0000001CB3701E3CC810001CB510001D56F9F
:100BC0000001D56701D059D0170E0001CB6F00018D
:100BD000C7C0CCF00001C8C0CDF00001C9C0CEF044
:100BE0000001CB290001CF6F05D00001D890CE3392
:100BF000CD33CC330001CF2FF8D70001CC51000109
:100C0000D06F0001C88FFF0E0001C717FF0E000153
:100C1000C817000E0001C9170001C7510001D16FAC
:100C20000001C8510001D26F0001C9510001D36F0A
:100C30000001D46B8E0E0001D55F0001D5AF19D035
:100C40000001D551800A0001CB6FF10E800A00012E
:100C5000CB5DD8A012D00001D8900001D4330001A0
:100C6000D3330001D2330001D1330001D53FF3D794
:100C700020D0170E0001D56519D0000E0001C76FF6
:100C8000000E0001C86F000E0001C96F000E0001C8
:100C9000CA6F2AD00001D8900001D1370001D237A5
:100CA0000001D3370001D4370001D5070001D56713
:100CB000F1D70001D051D8B40FD00001D41F0001EA
:100CC000D31F0001D21F0001D16D000E0001D223FD
:100CD0000001D3230001D423D1C0C7F0D2C0C8F093
:100CE000D3C0C9F0D4C0CAF0120081B481A608D024
:100CF00081A081A805D081A203D0F4EC0EF077D0BA
:100D000081B481B608D081B081A805D081A203D07A
:100D1000EBEC0EF049D081A481A60CD081B081A863
:100D200009D081A207D0EBEC0EF0FF0E0001E06FBE
:100D3000FE0E61D081B481A608D081B081B805D003
:100D400081A203D0E2EC0EF03ED081B481A608D09F
:100D500081B081A805D081B203D0E2EC0EF00AD0B8
:100D600081B481A60CD081B081B809D081B207D0FE
:100D7000E2EC0EF0000E0001E06F020E3CD081A408
:100D800081B608D081B081A805D081A203D0EBEC58
:100D90000EF0CBD781B481B60CD081A081A809D048
:100DA00081A207D0F4EC0EF00001DF690001E069D8
:100DB00024D081B481A60CD081A081B809D081A2B1
:100DC00007D0F4EC0EF0000E0001E06F010E13D01E
:100DD00081B481A60CD081B081A809D081A207D0AE
:100DE000FDEC0EF0FF0E0001E06FF60E04D0000ED9
:100DF0000001E06F000E0001DF6F12000001AF5133
:100E0000D8B408D00001AC510001AD110001AE1101
:100E1000D8A414D0000E0001AC6F000E0001AD6F1D
:100E2000000E0001AE6F6ED00001AF2B0001D89014
:100E30000001AE330001AD330001AC33000E000100
:100E4000AC150001B16F000E0001AD150001B26FCD
:100E5000FE0E0001AE150001B36F0001B151B211D9
:100E6000B311D8B414D0E0D70001AF2B010E0001AC
:100E7000AC27000E0001AD23000E0001AE230001DF
:100E8000D8900001AE330001AD330001AC33000E49
:100E90000001AC150001B16F000E0001AD1500019D
:100EA000B26FFF0E0001AE150001B36F0001B1512A
:100EB000B211B311D8B40BD0D7D70001AF070001DE
:100EC000D8900001AC370001AD370001AE3700010A
:100ED000ADAFF3D70001AFB102D00001AD9F00016B
:100EE000D890AF330001AF510001AE130001B051F3
:100EF000D8B402D00001AE8FACC0ACF0ADC0ADF044
:100F0000AEC0AEF012000600EACF37F0E1CF38F005
:100F1000E2CF39F0D9CF3AF0DACF3BF0F3CF3CF063
:100F2000F4CF3DF0F6CF3EF0F7CF3FF0F8CF40F0F2
:100F3000F5CF41F09EAA32D05550010D0001650E4B
:100F4000F324D96E0001000EF420DA6E95EC0EF059
:100F5000DF6E5550010D0001650EF324D96E0001BE
:100F6000000EF420DA6E230EDF6215D04C6608D036
:100F7000010E4F6E000E0001636F010E4C6E0DD01E
:100F80004C04D8A40BD0000E4C6E010E0001636F10
:100F9000000E4F6E03D04F04D8B4552AF2B218ECAD
:100FA0000FF0F0B006EC0FF0F0A203D00FEC0FF052
:100FB00002D09EB29D92F092F090F2929E929E9AF2
:100FC00041C0F5FF40C0F8FF3FC0F7FF3EC0F6FF4D
:100FD0003DC0F4FF3CC0F3FF3BC0DAFF3AC0D9FF8D
:100FE00039C0E2FF38C0E1FF37C0EAFF36C0E9FF91
:100FF00035C0FBFF34C0FAFF11000FC013F0146AB4
:10100000156A0E34133601E314801350166E1666FB
:1010100001D00CD012C013F0146A156A11341336C3
:1010200001E3148013501B6E1B6607D0000E0D6E7B
:10103000000E0E6E000E0F6E51D01B507B0F162649
:101040000FC01BF012501B1A800E1B160E8E118E35
:10105000FF0E1016FF0E1116000E1216000E176E60
:10106000000E186E000E196E070E1A6E0DA006D037
:10107000105017261150182212501922D8900F32F2
:101080000E320D32D8901036113612361A2EEED797
:10109000090E1A6E0DA006D01050172611501822F6
:1010A00012501922D8900F320E320D32D8901932C8
:1010B000183217321A2EEED717C001F018C002F0FE
:1010C00019C003F016C004F01BC005F00BEC0AF0C9
:1010D00001C00DF002C00EF003C00FF01200000EB0
:1010E000956E95CF94FF94CF93FF93CF92FFC00E50
:1010F000F26E000E0001E16F000E0001E06F340E91
:101100000001DF6FF20EE82EFED7DF2FFCD7D38869
:10111000D38AD38C000E966E96CF95FF95CF94FF11
:1011200094CF93FF93CF92FF000E846E84CF83FF02
:1011300083CF82FF82CF81FF81CF80FF948E949CEA
:10114000000E0001E16F010E0001E06F0001E151AE
:10115000800A800F330ED8B4E05DD8B00DD01A0EDF
:101160000001DF6FF80EE82EFED7DF2FFCD700D08E
:101170000001E04BE12BEAD7000E846E000E816E79
:101180009380938293849386938845EC09F0070EAD
:10119000C8EC0CF0000E556EE8EC0DF0FF0E70EC94
:1011A0000EF0FF0E5DEC0EF0000EA9EC0BF0000E41
:1011B0006BEC0BF012001EC020F0216A226A1D3475
:1011C000203601E3218020502A6E2A6601D038D0D3
:1011D000170E206E1CC021F01DC022F01EC023F08F
:1011E0002028246E04D0D890233222322132242E9B
:1011F000FAD72150256E1D8EFF0E1C16FF0E1D16F0
:10120000000E1E161C50266E1D50276E1E50286E96
:10121000296A8E0E2A5E2AAE10D02A50800A206ECD
:10122000F10E800A205CD8A00BD0D8902932283249
:10123000273226322A3EF9D714D0170E2A640FD04F
:10124000000E1C6E000E1D6E000E1E6E000E1F6E38
:101250001BD0D89026362736283629362A062A6605
:10126000F8D72550D8B408D0291E281E271E266C72
:10127000000E27222822292226C01CF027C01DF09C
:1012800028C01EF029C01FF01200330EB1EC0EF082
:10129000010EC8EC0CF020EEE4F010EEBAF0120EE5
:1012A000DECFE6FFE82EFCD7080E0001B76F520E26
:1012B0000001B66F000E0001B96F0B0E0001B86F90
:1012C000A4EC0EF0010EC8EC0CF00001000E0001C1
:1012D000B76F0001BA0E0001B66F000E0001B96FC2
:1012E000120E0001B86FA4EC0EF0020EC8EC0CF068
:1012F000080E0001B76F0B0E0001B66F000E000163
:10130000B96F0E0E0001B86FA4EC0EF0020EC8EC1F
:101310000CF0080E0001B76F5E0E0001B66F000EF4
:101320000001B96F080E0001B86FA4EC0EF0020EB8
:10133000C8EC0CF0080E0001B76F5E0E0001B66F2E
:10134000000E0001B96F080E0001B86FA4EC0EF09A
:10135000020EC8EC0CF01200000E0001B56F000E7A
:101360000001B46F25D00001B551010D0001AEC0E0
:10137000B2F00001AFC0B3F0F3500001B227F45057
:101380000001B323B2C0F6FFB3C0F7FFF86A070E3F
:10139000F76403D00800F55005D0F6CFE9FFF7CF8A
:1013A000EAFFEF500009D8A4B5C0B4F00001B52B96
:1013B0000001B5510001B26FB36B0001B0510001E3
:1013C000B25D0001B1510001B359D8A0CCD7000ED5
:1013D0000001B56F19D00001AEC0F6FF0001AFC02B
:1013E000F7FFF86A070EF76403D00800F55005D040
:1013F000F6CFE9FFF7CFEAFFEF50D9EC0EF000018E
:10140000AE4BAF2B0001B52B0001B5510001B45D0F
:10141000D8A01200E0D70450D8B405D00150021073
:101420000310D8A40CD0000E016E000E026E000E48
:10143000036E44D0042AD890033202320132000EE7
:101440000114066E000E0214076EFE0E0314086EE1
:10145000065007100810D8B40CD0ECD7042A010E9F
:101460000126000E0222000E0322D890033202321F
:101470000132000E0114066E000E0214076EFF0EFC
:101480000314086E065007100810D8B406D0E6D72B
:101490000406D89001360236033602AEF9D704A00E
:1014A000029ED8900432045003120550D8A4038E33
:1014B00001C001F002C002F003C003F01200000EF0
:1014C000F26E000E956E000E966EC180C182C184D0
:1014D000C1866FEC08F000016405D8A405D0E8ECE3
:1014E0000DF0000E0001646F00016305D8A40ED05A
:1014F000000E0001636F4F0EAB16AC9ACF0E9D1617
:1015000023EC0CF0330EB1EC0EF00CD000016205B0
:10151000D8A408D0000E0001626F4F0EAB16AC9A33
:10152000CF0E9D1681A602D0808001D0809081A030
:1015300002D0808201D0809281A802D0808401D024
:10154000809475EC06F0C7D7330EB1EC0EF0000EA8
:101550000001B86F000E0001B76F1CD00001B3C0CE
:10156000B5F00001B4C0B6F00001B7510001B527D5
:101570000001B8510001B623B5C0F6FFB6C0F7FFB1
:10158000F86A0800F550C6EC0EF0ACA2FED70001D8
:10159000B74BB82B0001B3C0B5F00001B4C0B6F032
:1015A0000001B7510001B5270001B8510001B62371
:1015B000B5C0F6FFB6C0F7FFF86A0800F55000099D
:1015C000D8A4CCD74F0EAB16AC9ACF0E9D161200F6
:1015D000330EB1EC0EF00001000E0001B96F0001F6
:1015E000CC0E0001B86F080E0001BB6F670E000142
:1015F000BA6FCAC0BCF0CBC0BDF036EC04F0000E30
:101600000001E16F000E0001E06F12D00001CC0E6E
:101610000001E025D96E0001000E0001E121DA6E23
:10162000DF50C6EC0EF0ACA2FED70001E04BE12B80
:101630000001CC0E0001E025D96E0001000E000172
:10164000E121DA6EDF50D8A4E1D74F0EAB16AC9A89
:10165000CF0E9D1612000001B16F000EAC6E000E91
:10166000AB6E0001B1B1AC880001B1A302D0AC8C6B
:10167000AB8C0001B1B5AC8E0001B1A702D0AB8834
:1016800001D0AB8A0001B1B9AC849E980001B1BB16
:10169000AB860001B1AD02D09D8A01D09D9A9E9A81
:1016A0000001B1AF02D09D8801D09D98ACC0AFFFC2
:1016B0000001ADC0AEF0AEC0AFF00001B06B0001F4
:1016C000AF51B06EAC8AAB8E949C948EACB8ACBE6D
:1016D00001D0948C12000001DC6F000E0001DE6F5F
:1016E000000E0001DD6F000E0001DB6F000E000137
:1016F000DA6FAE0E0001BB6F230E0001BC6F410E0E
:101700000001BD6F0001DC5144EC0EF0B4C0B8F034
:10171000B5C0B9F0B6C0BAF01EEC05F0B8C0C7F05D
:10172000B9C0C8F0BAC0C9F0D0EC05F0C7C0D6F057
:10173000C8C0D7F0C9C0D8F0CAC0D9F0D6C0DDF053
:10174000D7C0DEF0DDC0ACF0DEC0ADF05BEC0DF07C
:1017500012000001DC6F000E0001DE6F000E0001C0
:10176000DD6F000E0001DB6F000E0001DA6FAE0EC0
:101770000001BB6F230E0001BC6F410E0001BD6F65
:101780000001DC5144EC0EF0B4C0B8F0B5C0B9F0C3
:10179000B6C0BAF01EEC05F0B8C0C7F0B9C0C8F0CA
:1017A000BAC0C9F0D0EC05F0C7C0D6F0C8C0D7F0B9
:1017B000C9C0D8F0CAC0D9F0D6C0DDF0D7C0DEF0BD
:1017C000DDC0ACF0DEC0ADF07FEC0DF01200000E1D
:1017D0000001B16F000E0001B06F0001AF51AE11FA
:1017E000D8B42CD0010E0001B26F06D00001D89001
:1017F000AE37AF370001B22B0001AFAFF7D7000112
:10180000D890B037B1370001AE510001AC5D000196
:10181000AF510001AD59D8A00AD00001AE5100016E
:10182000AC5F0001AF510001AD5B0001B081000170
:10183000D890AF33AE330001B22FE1D7B0C0ACF0D7
:10184000B1C0ADF01200000E0001E36F000E000108
:10185000E26F20D075EC06F00001DFC0E2F000017D
:10186000E0C0E3F0E2C0CAF0E3C0CBF0E8EC0AF07D
:10187000080E0001B46F180E0001B36FA4EC0AF05B
:101880001AD000016851A9EC0BF0000169516BEC12
:101890000BF011D000016651010AD8B40CD0030A34
:1018A000D8B409D0010AD8B406D0070AD8B4D2D720
:1018B000010AD8B4E6D7E8EC0DF01200316E000E44
:1018C000336E000E326E000E306E000E2F6EAE0EB6
:1018D000106E230E116E410E126E315083EC0EF01D
:1018E00009C00DF00AC00EF00BC00FF0FDEC07F0C0
:1018F0000DC01CF00EC01DF00FC01EF0DBEC08F098
:101900001CC02BF01DC02CF01EC02DF01FC02EF0EF
:101910002BC032F02CC033F032C001F033C002F0E3
:101920000AEC0EF01200316E000E336E000E326EB5
:10193000000E306E000E2F6EAE0E106E230E116E66
:10194000410E126E315083EC0EF009C00DF00AC04A
:101950000EF00BC00FF0FDEC07F00DC01CF00EC038
:101960001DF00FC01EF0DBEC08F01CC02BF01DC0FA
:101970002CF01EC02DF01FC02EF02BC032F02CC05A
:1019800033F032C001F033C002F027EC0EF0120049
:101990000001B16F000E0001B26F000E0001B26FC6
:1019A00022D0000E0001AD6FFA0E0001AC6FA3EC67
:1019B0000DF0000E0001AD6FFA0E0001AC6FA3EC4C
:1019C0000DF0000E0001AD6FFA0E0001AC6FA3EC3C
:1019D0000DF0000E0001AD6FFA0E0001AC6FA3EC2C
:1019E0000DF00001B22B0001B2510001B15DD8A091
:1019F0001200D7D701EE00F0280EEE6AE806FDE1EE
:101A000000EE60F04C0EEE6AE806FDE100EE42F0FA
:101A10001C0EEE6AE806FDE1A00EF66E1D0EF76ED6
:101A2000000EF86E00EEE4F010EE12F00900F5CFB3
:101A3000EEFFE550E150FAE1600EF66E1E0EF76E15
:101A4000000EF86E0900F5CF5EF00900F5CF5FF0EB
:101A500000015FEF0AF00001B651B511D8B426D0ED
:101A6000010E0001B76F06D00001D890B537B63728
:101A70000001B72B0001B6AFF7D70001B551000147
:101A8000B35D0001B6510001B459D8A008D00001DF
:101A9000B5510001B35F0001B6510001B45B000114
:101AA000D890B633B5330001B72FE7D7B3C0B3F042
:101AB000B4C0B4F012000001ACC0AEF00001ADC083
:101AC000AFF0060ED8900001AE37AF37E82EFAD748
:101AD000AEC0B0F0AFC0B1F0B1C0BBFFB0C0AEF0AF
:101AE0000001D890AE330001D890AE33300E000123
:101AF000AE17BA50CF0B0001AE11BA6E1200000142
:101B0000ACC0AEF00001ADC0AFF0060ED890000141
:101B1000AE37AF37E82EFAD7AEC0B0F0AFC0B1F0F5
:101B2000B1C0BEFFB0C0AEF00001D890AE3300012E
:101B3000D890AE33300E0001AE17BD50CF0B000170
:101B4000AE11BD6E1200000E0001B06F000E00015C
:101B5000AF6F000E0001B06F000E0001AF6F0BD031
:101B6000030E0001AE6F980EE82EFED7AE2FFCD705
:101B70000001AF4BB02B0001AF510001AC5D000183
:101B8000B0510001AD59D8A01200EAD70001AD6FE5
:101B90000C0EBA6E050EF66E000EF76E300EF86E75
:101BA0000800F5CFACF00001ACA103D00001AE6994
:101BB00003D0000E0001AE6F0001AE51D8B402D0C8
:101BC000949201D09396CA94ADC0CBFFCA84120000
:101BD000000E0001AD6F000E0001AC6F0001AD51B1
:101BE000800A800F140ED8B4AC5DD8B012D00001BA
:101BF000650E0001AC25D96E0001000E0001AD217B
:101C0000DA6E000EDF6E000E556E0001AC4BAD2B90
:101C1000E5D7120001C003F002C004F0060ED89010
:101C200003360436E82EFBD703C005F004C006F0E7
:101C300006C0BBFF05C003F0D8900332D890033232
:101C4000300E0316BA50CF0B0310BA6E120001C04B
:101C500003F002C004F0060ED89003360436E82ED6
:101C6000FBD703C005F004C006F006C0BEFF05C0E8
:101C700003F0D8900332D8900332300E0316BD50D3
:101C8000CF0B0310BD6E12000001B76F0001B751FA
:101C90000001AC6F0001AD6B0001AE6B8E0E000158
:101CA000AF6F000E0001B06FFEEC06F0ACC0B4F0F8
:101CB000ADC0B5F0AEC0B6F012000001AF6FFE0EC1
:101CC0000001AB6F0001AB51FB0BCA6E000ECC6E76
:101CD0009E929D92CA840001AF51C6EC0DF0120095
:101CE0000001AD6FFE0E0001AB6F0001AB51FB0BAD
:101CF000CA6E000ECC6E9E929D92CA840001AD51B8
:101D0000BCEC0EF012000C6E0C50016E026A036AFD
:101D10008E0E046E000E056E0BEC0AF001C009F089
:101D200002C00AF003C00BF01200F20E5416ABAC66
:101D300003D05490ABB05480ABB45484ABB254864F
:101D4000AECF01F0015012000001B7C0AFF00001AA
:101D5000B6C0AEF0B8C0B0F0B9C0B1F0ACEC09F0AC
:101D600012000001B26F0001B2C0ACF00001AD6B17
:101D70007C0E2BEC0BF012000001AC6F0C0EBD12B0
:101D80009494CA94ACC0CBFFCA8412000001AC6F1B
:101D9000ACAC03D0AC9054B2AC80ACC0ADFF120080
:101DA00041542B4E414D453D726F626F740D0A00D8
:101DB00000000001AD6F0001AD51C6EC0EF0ACB2F9
:101DC0001200FDD721EC0FF0640EA9EC0BF0000E11
:101DD0006BEC0BF0120021EC0FF0000EA9EC0BF0F5
:101DE000640E6BEC0BF0120021EC0FF0640EA9EC0A
:101DF0000BF0640E6BEC0BF0120026EC0FF0640E8F
:101E0000A9EC0BF0640E6BEC0BF012002BEC0FF056
:101E1000640E93EC0CF0000E5EEC0CF012002BEC58
:101E20000FF0000E93EC0CF0640E5EEC0CF0120060
:101E30002BEC0FF0640E93EC0CF0640E5EEC0CF0E7
:101E40001200838E8398838483961200839E8388F6
:101E5000839483861200838E8398838483961200F2
:021E600001007F
:020000040020DA
:08000000FFFFFFFFFFFFFFFF00
:020000040030CA
:0E0000002008191EFF8181FF0FC00FE00F4086
:00000001FF
